{
  "_format": "hh-sol-artifact-1",
  "contractName": "Donation",
  "sourceName": "contracts/Donation.sol",
  "abi": [
    {
      "anonymous": false,
      "inputs": [
        {
          "indexed": true,
          "internalType": "bytes32",
          "name": "id",
          "type": "bytes32"
        },
        {
          "indexed": true,
          "internalType": "address",
          "name": "owner",
          "type": "address"
        },
        {
          "indexed": false,
          "internalType": "string",
          "name": "title",
          "type": "string"
        },
        {
          "indexed": false,
          "internalType": "uint256",
          "name": "goal",
          "type": "uint256"
        }
      ],
      "name": "NewCampaign",
      "type": "event"
    },
    {
      "anonymous": false,
      "inputs": [
        {
          "indexed": true,
          "internalType": "bytes32",
          "name": "id",
          "type": "bytes32"
        },
        {
          "indexed": true,
          "internalType": "address",
          "name": "donator",
          "type": "address"
        },
        {
          "indexed": false,
          "internalType": "uint256",
          "name": "donation",
          "type": "uint256"
        },
        {
          "indexed": false,
          "internalType": "bool",
          "name": "wasGoalAchieved",
          "type": "bool"
        }
      ],
      "name": "NewDonation",
      "type": "event"
    },
    {
      "inputs": [
        {
          "internalType": "bytes32",
          "name": "",
          "type": "bytes32"
        }
      ],
      "name": "campaigns",
      "outputs": [
        {
          "internalType": "bytes32",
          "name": "id",
          "type": "bytes32"
        },
        {
          "internalType": "string",
          "name": "title",
          "type": "string"
        },
        {
          "internalType": "uint256",
          "name": "goal",
          "type": "uint256"
        },
        {
          "internalType": "uint256",
          "name": "raised",
          "type": "uint256"
        },
        {
          "internalType": "uint256",
          "name": "withdrawed",
          "type": "uint256"
        },
        {
          "internalType": "bool",
          "name": "achieved",
          "type": "bool"
        },
        {
          "internalType": "address",
          "name": "owner",
          "type": "address"
        }
      ],
      "stateMutability": "view",
      "type": "function"
    },
    {
      "inputs": [
        {
          "internalType": "string",
          "name": "_title",
          "type": "string"
        },
        {
          "internalType": "uint256",
          "name": "_goal",
          "type": "uint256"
        }
      ],
      "name": "createCampaign",
      "outputs": [],
      "stateMutability": "nonpayable",
      "type": "function"
    },
    {
      "inputs": [
        {
          "internalType": "bytes32",
          "name": "_campaignId",
          "type": "bytes32"
        }
      ],
      "name": "donate",
      "outputs": [],
      "stateMutability": "payable",
      "type": "function"
    },
    {
      "inputs": [],
      "name": "getCampaigns",
      "outputs": [
        {
          "components": [
            {
              "internalType": "bytes32",
              "name": "id",
              "type": "bytes32"
            },
            {
              "internalType": "string",
              "name": "title",
              "type": "string"
            },
            {
              "internalType": "uint256",
              "name": "goal",
              "type": "uint256"
            },
            {
              "internalType": "uint256",
              "name": "raised",
              "type": "uint256"
            },
            {
              "internalType": "uint256",
              "name": "withdrawed",
              "type": "uint256"
            },
            {
              "internalType": "bool",
              "name": "achieved",
              "type": "bool"
            },
            {
              "internalType": "address",
              "name": "owner",
              "type": "address"
            }
          ],
          "internalType": "struct Donation.Campaign[]",
          "name": "",
          "type": "tuple[]"
        }
      ],
      "stateMutability": "view",
      "type": "function"
    },
    {
      "inputs": [
        {
          "internalType": "bytes32",
          "name": "_campaignId",
          "type": "bytes32"
        }
      ],
      "name": "withdrawFromCampaign",
      "outputs": [],
      "stateMutability": "nonpayable",
      "type": "function"
    }
  ],
  "bytecode": "0x608060405234801561001057600080fd5b50611329806100206000396000f3fe60806040526004361061004a5760003560e01c8063330fd29b1461004f5780639eca2f1e14610078578063a6b03633146100bb578063c37067fa146100e6578063f102a67c14610102575b600080fd5b34801561005b57600080fd5b5061007660048036038101906100719190610a7b565b61012b565b005b34801561008457600080fd5b5061009f600480360381019061009a9190610a7b565b610253565b6040516100b29796959493929190610ddf565b60405180910390f35b3480156100c757600080fd5b506100d061034a565b6040516100dd9190610dbd565b60405180910390f35b61010060048036038101906100fb9190610a7b565b6105cf565b005b34801561010e57600080fd5b5061012960048036038101906101249190610aa4565b6106fa565b005b60006001600083815260200190815260200160002090508060050160019054906101000a900473ffffffffffffffffffffffffffffffffffffffff1673ffffffffffffffffffffffffffffffffffffffff163373ffffffffffffffffffffffffffffffffffffffff16146101d4576040517f08c379a00000000000000000000000000000000000000000000000000000000081526004016101cb90610e85565b60405180910390fd5b6000816004015482600301546101ea919061100b565b90503373ffffffffffffffffffffffffffffffffffffffff166108fc829081150290604051600060405180830381858888f19350505050158015610232573d6000803e3d6000fd5b50808260040160008282546102479190610fb5565b92505081905550505050565b600160205280600052604060002060009150905080600001549080600101805461027c906110d3565b80601f01602080910402602001604051908101604052809291908181526020018280546102a8906110d3565b80156102f55780601f106102ca576101008083540402835291602001916102f5565b820191906000526020600020905b8154815290600101906020018083116102d857829003601f168201915b5050505050908060020154908060030154908060040154908060050160009054906101000a900460ff16908060050160019054906101000a900473ffffffffffffffffffffffffffffffffffffffff16905087565b60606000808054905067ffffffffffffffff811115610392577f4e487b7100000000000000000000000000000000000000000000000000000000600052604160045260246000fd5b6040519080825280602002602001820160405280156103cb57816020015b6103b86108ee565b8152602001906001900390816103b05790505b50905060005b6000805490508110156105c75760006001600080848154811061041d577f4e487b7100000000000000000000000000000000000000000000000000000000600052603260045260246000fd5b906000526020600020015481526020019081526020016000209050806040518060e00160405290816000820154815260200160018201805461045e906110d3565b80601f016020809104026020016040519081016040528092919081815260200182805461048a906110d3565b80156104d75780601f106104ac576101008083540402835291602001916104d7565b820191906000526020600020905b8154815290600101906020018083116104ba57829003601f168201915b505050505081526020016002820154815260200160038201548152602001600482015481526020016005820160009054906101000a900460ff161515151581526020016005820160019054906101000a900473ffffffffffffffffffffffffffffffffffffffff1673ffffffffffffffffffffffffffffffffffffffff1673ffffffffffffffffffffffffffffffffffffffff16815250508383815181106105a8577f4e487b7100000000000000000000000000000000000000000000000000000000600052603260045260246000fd5b60200260200101819052505080806105bf90611136565b9150506103d1565b508091505090565b60003411610612576040517f08c379a000000000000000000000000000000000000000000000000000000000815260040161060990610ea5565b60405180910390fd5b60006001600083815260200190815260200160002090503481600301600082825461063d9190610fb5565b9250508190555080600201548160030154101580156106715750600015158160050160009054906101000a900460ff161515145b156106945760018160050160006101000a81548160ff0219169083151502179055505b3373ffffffffffffffffffffffffffffffffffffffff16827f11adced480986c2cbeecbbd90ac04208aaa7959d32c5c2d6c1e853bcaf81f9d0348460050160009054906101000a900460ff166040516106ee929190610ec5565b60405180910390a35050565b6000828260405160200161070f929190610d95565b60405160208183030381529060405280519060200120905061072f6108ee565b81816000018181525050838160200181905250828160400181815250506000816060018181525050600081608001818152505060008160a0019015159081151581525050338160c0019073ffffffffffffffffffffffffffffffffffffffff16908173ffffffffffffffffffffffffffffffffffffffff16815250506000829080600181540180825580915050600190039060005260206000200160009091909190915055806001600084815260200190815260200160002060008201518160000155602082015181600101908051906020019061080e929190610946565b5060408201518160020155606082015181600301556080820151816004015560a08201518160050160006101000a81548160ff02191690831515021790555060c08201518160050160016101000a81548173ffffffffffffffffffffffffffffffffffffffff021916908373ffffffffffffffffffffffffffffffffffffffff1602179055509050503373ffffffffffffffffffffffffffffffffffffffff16827f2565ff28e8fbe47d2b988b3115e981529583cc43618dfef8e5dcda177da991be86866040516108e0929190610e55565b60405180910390a350505050565b6040518060e001604052806000801916815260200160608152602001600081526020016000815260200160008152602001600015158152602001600073ffffffffffffffffffffffffffffffffffffffff1681525090565b828054610952906110d3565b90600052602060002090601f01602090048101928261097457600085556109bb565b82601f1061098d57805160ff19168380011785556109bb565b828001600101855582156109bb579182015b828111156109ba57825182559160200191906001019061099f565b5b5090506109c891906109cc565b5090565b5b808211156109e55760008160009055506001016109cd565b5090565b60006109fc6109f784610f13565b610eee565b905082815260208101848484011115610a1457600080fd5b610a1f848285611091565b509392505050565b600081359050610a36816112c5565b92915050565b600082601f830112610a4d57600080fd5b8135610a5d8482602086016109e9565b91505092915050565b600081359050610a75816112dc565b92915050565b600060208284031215610a8d57600080fd5b6000610a9b84828501610a27565b91505092915050565b60008060408385031215610ab757600080fd5b600083013567ffffffffffffffff811115610ad157600080fd5b610add85828601610a3c565b9250506020610aee85828601610a66565b9150509250929050565b6000610b048383610cc4565b905092915050565b610b158161103f565b82525050565b610b248161103f565b82525050565b6000610b3582610f54565b610b3f8185610f77565b935083602082028501610b5185610f44565b8060005b85811015610b8d5784840389528151610b6e8582610af8565b9450610b7983610f6a565b925060208a01995050600181019050610b55565b50829750879550505050505092915050565b610ba881611051565b82525050565b610bb781611051565b82525050565b610bc68161105d565b82525050565b610bd58161105d565b82525050565b6000610be682610f5f565b610bf08185610f88565b9350610c008185602086016110a0565b610c0981611216565b840191505092915050565b6000610c1f82610f5f565b610c298185610f99565b9350610c398185602086016110a0565b610c4281611216565b840191505092915050565b6000610c5882610f5f565b610c628185610faa565b9350610c728185602086016110a0565b80840191505092915050565b6000610c8b603b83610f99565b9150610c9682611227565b604082019050919050565b6000610cae602183610f99565b9150610cb982611276565b604082019050919050565b600060e083016000830151610cdc6000860182610bbd565b5060208301518482036020860152610cf48282610bdb565b9150506040830151610d096040860182610d60565b506060830151610d1c6060860182610d60565b506080830151610d2f6080860182610d60565b5060a0830151610d4260a0860182610b9f565b5060c0830151610d5560c0860182610b0c565b508091505092915050565b610d6981611087565b82525050565b610d7881611087565b82525050565b610d8f610d8a82611087565b61117f565b82525050565b6000610da18285610c4d565b9150610dad8284610d7e565b6020820191508190509392505050565b60006020820190508181036000830152610dd78184610b2a565b905092915050565b600060e082019050610df4600083018a610bcc565b8181036020830152610e068189610c14565b9050610e156040830188610d6f565b610e226060830187610d6f565b610e2f6080830186610d6f565b610e3c60a0830185610bae565b610e4960c0830184610b1b565b98975050505050505050565b60006040820190508181036000830152610e6f8185610c14565b9050610e7e6020830184610d6f565b9392505050565b60006020820190508181036000830152610e9e81610c7e565b9050919050565b60006020820190508181036000830152610ebe81610ca1565b9050919050565b6000604082019050610eda6000830185610d6f565b610ee76020830184610bae565b9392505050565b6000610ef8610f09565b9050610f048282611105565b919050565b6000604051905090565b600067ffffffffffffffff821115610f2e57610f2d6111e7565b5b610f3782611216565b9050602081019050919050565b6000819050602082019050919050565b600081519050919050565b600081519050919050565b6000602082019050919050565b600082825260208201905092915050565b600082825260208201905092915050565b600082825260208201905092915050565b600081905092915050565b6000610fc082611087565b9150610fcb83611087565b9250827fffffffffffffffffffffffffffffffffffffffffffffffffffffffffffffffff0382111561100057610fff611189565b5b828201905092915050565b600061101682611087565b915061102183611087565b92508282101561103457611033611189565b5b828203905092915050565b600061104a82611067565b9050919050565b60008115159050919050565b6000819050919050565b600073ffffffffffffffffffffffffffffffffffffffff82169050919050565b6000819050919050565b82818337600083830152505050565b60005b838110156110be5780820151818401526020810190506110a3565b838111156110cd576000848401525b50505050565b600060028204905060018216806110eb57607f821691505b602082108114156110ff576110fe6111b8565b5b50919050565b61110e82611216565b810181811067ffffffffffffffff8211171561112d5761112c6111e7565b5b80604052505050565b600061114182611087565b91507fffffffffffffffffffffffffffffffffffffffffffffffffffffffffffffffff82141561117457611173611189565b5b600182019050919050565b6000819050919050565b7f4e487b7100000000000000000000000000000000000000000000000000000000600052601160045260246000fd5b7f4e487b7100000000000000000000000000000000000000000000000000000000600052602260045260246000fd5b7f4e487b7100000000000000000000000000000000000000000000000000000000600052604160045260246000fd5b6000601f19601f8301169050919050565b7f596f75206e65656420746f20626520746865206f776e6572206f66207468652060008201527f63616d706169676e20746f207769746864726177206d6f6e6579210000000000602082015250565b7f596f75206e65656420746f2073656e64206d6f6e657920746f20646f6e61746560008201527f2100000000000000000000000000000000000000000000000000000000000000602082015250565b6112ce8161105d565b81146112d957600080fd5b50565b6112e581611087565b81146112f057600080fd5b5056fea26469706673582212205a01c1db77189f5e899cef235100e3bfaa0eddd20635a73d81ead55730733c6c64736f6c63430008040033",
  "linkReferences": {},
  "deployedLinkReferences": {}
}